:100000000C942A000C943F000C943F000C943F0089
:100010000C943F000C943F000C943F000C943F0064
:100020000C943F000C943F000C943F000C943F0054
:100030000C943F000C943F000C943F000C943F0044
:100040000C943F000C943F000C943F000C943F0034
:100050000C943F0011241FBECFE5D8E0DEBFCDBF1A
:1000600010E0A0E6B0E0ECE0F1E002C005900D92F7
:10007000AC36B107D9F70E9467000C9484000C9449
:10008000000085BBD898D998DA9A0000DA988DEEEE
:1000900092E00197F1F700C00000089585BBD89A5F
:1000A000D998DA9A0000DA9889EF90E00197F1F791
:1000B00000C000000895CF93DF93EC01899188235D
:1000C00019F00E944E00FACFDF91CF9108958FEF83
:1000D0008ABB87BB87E893E10197F1F700C0000076
:1000E00088E30E9441008CE00E94410086E00E946B
:1000F000410081E00E94410080E80E94410080E6CA
:0C01000090E00E945B00FFCFF894FFCF5E
:0C010C0048656C6C6F20576F726C6400CB
:00000001FF
